:107C720080EF3FF0B88CAB8EAC8AAC84AC82080E3D
:107C8200AF6EB06A1200AB8E1200AB9E12009EA8BD
:107C920048EF3EF0ACAA48EF3EF0AD6EACA24FEF1B
:107CA2003EF01200B86AAB6AAC6AAF6AB06A120000
:107CB200B88CAB8EAC8AAC84AC82080EAF6EB06A64
:107CC2001200AB8E1200AB9E12009EA866EF3EF031
:107CD200ACAA66EF3EF0AD6EACA26DEF3EF01200C4
:107CE200B86AAB6AAC6AAF6AB06A12008A928A90CA
:107CF200800EC76E080EC66E000EC56E270EC86EC9
:107D0200C68A1200C7B483EF3EF0C5501F0BD8A439
:107D120083EF3EF0120083EC3EF0C580120083EC4C
:107D22003EF0C584120083EC3EF0C96E12008A92C6
:107D32008A90800EC76E080EC66E000EC56E270EA4
:107D4200C86EC68A1200C7B4A4EF3EF0C5501F0B1E
:107D5200D8A4A4EF3EF01200A4EC3EF0C5801200BD
:107D6200A4EC3EF0C5841200A4EC3EF0C96E1200F1
:107D7200ADEC3EF03C0EB5EC3EF0AE0EB5EC3EF096
:107D8200D50EB5EC3EF0800EB5EC3EF0A80EB5EC8B
:107D92003EF0D30EB5EC3EF0000EB5EC3EF0400ED8
:107DA200B5EC3EF08D0EB5EC3EF0020EB5EC3EF0B9
:107DB200200EB5EC3EF0000EB5EC3EF0A10EB5EC97
:107DC2003EF0C80EB5EC3EF0DA0EB5EC3EF0120E07
:107DD200B5EC3EF0810EB5EC3EF0CF0EB5EC3EF0C8
:107DE200D90EB5EC3EF0F10EB5EC3EF0DB0EB5EC83
:107DF2003EF0400EB5EC3EF0A40EB5EC3EF0A60E01
:107E0200B5EC3EF02E0EB5EC3EF0AF0EB5EC3EF00A
:107E1200B1EC3EF012008A928A90800EC76E080E74
:107E2200C66E000EC56E270EC86EC68A1200C7B493
:107E320018EF3FF0C5501F0BD8A418EF3FF0120007
:107E420018EC3FF0C580120018EC3FF0C584120018
:107E520018EC3FF0C96E120021EC3FF03C0E29EC09
:107E62003FF0AE0E29EC3FF0D50E29EC3FF0800E2C
:107E720029EC3FF0A80E29EC3FF0D30E29EC3FF09D
:107E8200000E29EC3FF0400E29EC3FF08D0E29EC5C
:107E92003FF0020E29EC3FF0200E29EC3FF0000EDD
:107EA20029EC3FF0A10E29EC3FF0C80E29EC3FF07F
:107EB200DA0E29EC3FF0120E29EC3FF0810E29EC8C
:107EC2003FF0CF0E29EC3FF0D90E29EC3FF0F10E36
:107ED20029EC3FF0DB0E29EC3FF0400E29EC3FF09D
:107EE200A40E29EC3FF0A60E29EC3FF02E0E29EC51
:107EF2003FF0AF0E29EC3FF025EC3FF01200700E80
:107F0200D36E98EC3EF0B9EC3EF0F3EC3FF0ADEC02
:107F12003EF03C0EB5EC3EF0000EB5EC3EF0210E0C
:107F2200B5EC3EF0B1EC3EF0ADEC3EF03C0EB5EC03
:107F32003EF0000EB5EC3EF0000EB5EC3EF0B1ECBA
:107F42003EF0ADEC3EF03C0EB5EC3EF0000EB5EC72
:107F52003EF07F0EB5EC3EF0B1EC3EF0ADEC3EF003
:107F62003C0EB5EC3EF0000EB5EC3EF0220EB5EC48
:107F72003EF0B1EC3EF0ADEC3EF03C0EB5EC3EF026
:107F8200000EB5EC3EF0000EB5EC3EF0B1EC3EF06A
:107F9200ADEC3EF03C0EB5EC3EF0000EB5EC3EF022
:107FA200070EB5EC3EF0B1EC3EF0ADEC3EF03C0E0F
:107FB200B5EC3EF0400EB5EC3EF0010EB5EC3EF0F5
:107FC200632B6351805FD8A4DEEF3FF0622B6251D6
:107FD2000808D8A4E7EF3FF0B1EC3EF082EF3FF0A3
:107FE200F1EF3FF0CD6A9E6A600ECE6ED10ECE6E7C
:0E7FF200010ECD6E9EA0FBEF3FF09E901200A0
:020000040030CA
:0400000000285F3C39
:02000500D381A5
:060008000FC00FE00F40E5
:00000001FF
