:107F6400B4EF3FF0700ED36EBEEC3FF0CAEC3FF0BE
:107F7400410ECEEC3FF01200946A8B8C8B8EB88C41
:107F8400AB8EAC8AAC84AC82670EAF6EB06A120062
:107F9400AB8E1200AB9E12009EA8CEEF3FF0ACAAAF
:107FA400CEEF3FF0AD6EACA2D5EF3FF01200B86A51
:107FB400AB6AAC6AAF6AB06A1200946A8B8C8B8E1F
:107FC400B88CAB8EAC8AAC84AC82670EAF6EB06AF0
:107FD4001200AB8E1200AB9E12009EA8EFEF3FF092
:107FE400ACAAEFEF3FF0AD6EACA2F6EF3FF012009B
:0C7FF400B86AAB6AAC6AAF6AB06A1200EF
:020000040030CA
:0400000000285F3C39
:02000500D381A5
:060008000FC00FE00F40E5
:00000001FF
